:020000040000fa
:080000000002040000000000f2
:020000040000fa
:100008009a0200009a0200009a0200009a02000078
:100018009a0200009a0200009a0200009a02000068
:100028009a0200009a0200009a0200009a02000058
:100038009a0200009a0200009a0200009a02000048
:100048009a0200009a0200009a0200009a02000038
:100058009a0200009a0200009a0200009a02000028
:100068009a0200009a0200009a0200009a02000018
:100078009a0200009a0200009a0200009a02000008
:100088009a0200009a0200009a0200009a020000f8
:100098009a0200009e0e00009a0200009a020000d8
:1000a8009a0200009a0200009a0200009a020000d8
:1000b8009a0200009a0200009a0200009a020000c8
:1000c8009a0200009a0200009a0200009a020000b8
:1000d8009a0200009a0200009a0200009a020000a8
:1000e8009a0200009a0200009a0200009a02000098
:1000f8009a0200009a0200009a0200009a02000088
:100108009a0200009a0200009a0200009a02000077
:100118009a0200009a0200009a0200009a02000067
:100128009a0200009a0200009a0200009a02000057
:100138009a0200009a0200009a0200009a02000047
:100148009a0200009a0200009a0200009a02000037
:100158009a0200009a0200009a0200009a02000027
:100168009a0200009a0200009a0200009a02000017
:100178009a0200009a0200009a0200009a02000007
:100188009a0200009a0200009a0200009a020000f7
:100198009a0200009a0200009a0200009a020000e7
:1001a8009a0200009a0200009a0200009a020000d7
:1001b8009a0200009a0200009a0200009a020000c7
:1001c8009a0200009a0200009a0200009a020000b7
:1001d8009a0200009a0200009a0200009a020000a7
:1001e8009a0200009a0200009a0200009a02000097
:0801f8009a0200009a020000c7
:020000040000fa
:100208009a0200009a0200009a0200009a02000076
:100218009a0200009a0200009a0200009a02000066
:100228009a0200009a0200009a0200009a02000056
:100238009a0200009a0200009a0200009a02000046
:100248009a0200009a0200009a0200009a02000036
:100258009a0200009a0200009a0200009a02000026
:100268009a0200009a0200009a0200009a02000016
:100278009a0200009a0200009a0200009a02000006
:100288009a0200009a0200009a0200009a020000f6
:100298009a0200009e0e00009a0200009a020000d6
:1002a8009a0200009a0200009a0200009a020000d6
:1002b8009a0200009a0200009a0200009a020000c6
:1002c8009a0200009a0200009a0200009a020000b6
:1002d8009a0200009a0200009a0200009a020000a6
:1002e8009a0200009a0200009a0200009a02000096
:1002f8009a0200009a0200009a0200009a02000086
:100308009a0200009a0200009a0200009a02000075
:100318009a0200009a0200009a0200009a02000065
:100328009a0200009a0200009a0200009a02000055
:100338009a0200009a0200009a0200009a02000045
:100348009a0200009a0200009a0200009a02000035
:100358009a0200009a0200009a0200009a02000025
:100368009a0200009a0200009a0200009a02000015
:100378009a0200009a0200009a0200009a02000005
:100388009a0200009a0200009a0200009a020000f5
:100398009a0200009a0200009a0200009a020000e5
:1003a8009a0200009a0200009a0200009a020000d5
:1003b8009a0200009a0200009a0200009a020000c5
:1003c8009a0200009a0200009a0200009a020000b5
:1003d8009a0200009a0200009a0200009a020000a5
:1003e8009a0200009a0200009a0200009a02000095
:0803f8009a0200009a020000c5
:020000040000fa
:10040000cf9920000e7f22000e018800000000001e
:10041000000020000000e000020032000001200087
:10042000200288000c000700a038220001002000f4
:1004300011000700000020000000e0000200320070
:100440000000020000000000f61e02000000000094
:100450000040da000000fe004440a90000482000ef
:100460000000e0000300320000002000a00188002e
:100470004440a80000000600910188008000780038
:100480000000eb0015003700e280400032a0b4000d
:100490009101ba00e280400032a0b4009102ba009b
:1004a000e280400032a0b4000002eb00472bde00e7
:1004b000f507b200602ce10004003a000059eb009f
:1004c0008301e900fdff3e00040037006128e100e0
:1004d000010032000082eb00040007001101ba00a5
:1004e0000200e000e8ff3a00000006003159ba00bf
:1004f0008301e9000c0032002159ba008301e900b0
:10050000080032000400e00003003a00e2804000ee
:1005100032a0b400f5ff370011d9ba008301e90019
:10052000faff3a008100e800e180400032a0b40008
:0c053000000006000040da000000fe00a1
:020000040000fa
:10053c0020b200002020000020b20000202000008b
:10054c00b2200000b220000020200000202000007b
:10055c00b2200000b20d00000ab2000020b2000070
:10056c0020b2000020b200002020000020b20000c9
:10057c0020200000b220000020b20000202000004b
:10058c000d0a0000b220000020b200002020000064
:10059c00b2200000b2200000b220000020b2000007
:1005ac0020200000b2200000b20d00000ab20000b2
:1005bc0020200000b220000020b2000020b2000079
:1005cc0020200000b2200000b2200000b220000069
:1005dc0020b200000d0a0000b220000020b2000082
:1005ec0020200000b2200000b220000020200000db
:1005fc00b2200000b220000020200000b20d00004c
:10060c000a200000202000002020000020200000f4
:10061c0020200000202000002020000020200000ce
:10062c0020200000202000000d0a0000b2b20000c3
:10063c00b220000020b20000b2b20000b20d0000e7
:10064c000ab2000020200000b2200000b2200000fe
:10065c00202000000d0a0000b220000020b2000093
:10066c0020b20000b2b20000b20d00000ab20000cd
:10067c0020200000b2200000b2200000202000004a
:10068c000d0a0000b2b20000b220000020b200003f
:10069c00b2b20000b20d00000a20000020200000c1
:1006ac002020000020200000202000000d0a000067
:1006bc000d0a0000537400006172000074690000a0
:1006cc006e670000204e00006f6400006520000083
:1006dc00312000006f66000020530000696d00009f
:1006ec00706c000065200000446500006d6f000018
:1006fc00206600006f720000204d0000695700005a
:10070c0069280000544d00002920000050320000e0
:10071c005020000053740000616300006b20000047
:10072c002e2e00002e0000000d0a000020200000dc
:10073c0020200000205200004620000054720000cf
:10074c00616e00007363000065690000766500004f
:10075c00723a0000204d000052460000383900006b
:10076c0058410000000d00000a200000202000006d
:10077c00446500006d6f0000204900006e7300009e
:10078c007472000075630000746900006f6e0000e5
:10079c003a0000000d0a000020200000202000007c
:1007ac00202000002020000020200000202000003d
:1007bc00202000002020000020200000202000002d
:1007cc00205000006f77000065720000206f000061
:1007dc006e2000007468000065200000626f00004d
:1007ec006172000064200000756e000074690000e6
:1007fc006c2000004c45000044200000312000001b
:10080c006c690000676800007473000020750000bc
:10081c00700000000d0a00002020000020200000c5
:10082c0020200000202000002020000020200000bc
:10083c0020200000202000002020000020200000ac
:10084c00207400006f200000696e000064690000d5
:10085c006361000074650000206300006f6e00008f
:10086c006e65000063740000696e00006720000074
:10087c007769000074680000207000006565000056
:10088c00722e0000205000007573000068000000fc
:10089c000d0a000020200000202000002020000075
:1008ac00202000002020000020200000202000003c
:1008bc00202000002020000020200000204200000a
:1008cc0075740000746f00006e2000003120000071
:1008dc00746f000020620000726f00006164000001
:1008ec006361000073740000206d000065730000ec
:1008fc0073610000676500002e2000005075000039
:10090c00736800002042000075740000746f0000d2
:10091c006e0000000d0a00002020000020200000c6
:10092c0020200000202000002020000020200000bb
:10093c0020200000202000002020000020200000ab
:10094c0020320000207400006f200000756e000043
:10095c00696300006173000074200000656e000084
:10096c006372000079700000746500006420000060
:10097c006d6500007373000061670000652e000058
:10098c00204c00004544000020320000207700007d
:10099c00696c00006c0000000d0a000020200000b3
:1009ac00202000002020000020200000202000003b
:1009bc00202000002020000020200000202000002b
:1009cc00202000002062000065200000746f0000f1
:1009dc00676700006c650000642000007570000003
:1009ec006f6e0000207200006563000065690000f6
:1009fc00766900006e670000206d000065730000d2
:100a0c007361000067650000732e00002000000079
:100a1c000d0a00000d0a0000000d00000a43000042
:100a2c006f6e00006e65000063740000696e00005c
:100a3c00672000005065000065720000206f000008
:100a4c006e20000043680000616e00006e650000bf
:100a5c006c200000000d00000a0000000d0a0000d0
:100a6c00436f00006e6e000065630000746500004b
:100a7c00642000005065000065720000206f0000cb
:100a8c006e20000043680000616e00006e6500007f
:100a9c006c200000005300006563000075720000bc
:100aac006564000020000000427200006f610000cd
:100abc00646300006173000074200000506100004a
:100acc00636b0000657400002077000069740000ff
:100adc006820000052530000534900002000000021
:100aec00556e000069630000617300007420000003
:100afc0050610000636b00006574000020770000fb
:100b0c006974000068200000525300005349000033
:100b1c002000000020660000726f00006d200000b5
:100b2c00003a0000200000000d0a00005365000090
:100b3c006c65000063740000696f00006e2000009b
:100b4c006f66000020630000686100006e6e00009c
:100b5c00656c00002000000020690000732000007c
:100b6c006e6f000074200000737500007070000040
:100b7c006f7200007465000064200000696e000054
:100b8c002063000075720000726500006e74000036
:100b9c00206300006f6e000066690000677500003e
:100bac0072610000746900006f6e00002e0d000071
:100bbc000a0000000d0a0000556e00006963000079
:100bcc00617300007420000046610000696c000035
:100bdc00656400000d0a0000000000000d0a000012
:100bec000d0a00004d7900002041000064640000f3
:100bfc0072650000737300003a200000307800002a
:100c0c000020000020430000686100006e6e0000b0
:100c1c00656c00003a200000000d00000a43000043
:100c2c006f6e00006e65000063740000696f000059
:100c3c006e200000202000002020000050650000e5
:100c4c00657200004c6f00006e670000416400008c
:100c5c006472000065730000732000002020000007
:100c6c00202000005065000065720000496e0000f5
:100c7c00666f00000d0a000000200000202000001c
:100c8c002020000020200000202000002020000058
:100c9c002020000000200000200000002020000088
:100cac0020200000000d00000a0000000d0a0000ca
:100cbc000d0a0000436f00006e6e000065630000bb
:100ccc00746900006f6e00002020000020200000de
:100cdc002050000065650000724c00006f6e000033
:100cec0067410000646400007265000073730000cb
:100cfc00202000002020000020500000656500002e
:100d0c00724900006e6600006f0d00000a000000c2
:100d1c00535300005353000053530000535300002f
:100d2c00535300005353000053530000535300001f
:100d3c00535300005353000054540000545400000b
:100d4c0054540000545400005454000054540000f7
:100d5c001d20000022250000282b00002e30000052
:100d6c0033360000393c00003f410000444700008e
:100d7c004a4d00004f5200000a0d000010120000f6
:100d8c00151800001b1e000020230000262900005f
:100d9c00260000008402000009040000090600007f
:100dac000c080000c10a0000770c0000630e000064
:100dbc0019100000001200000014000000160000c2
:100dcc0038180000c81a00000d1c0000001e00009e
:100ddc007220000038220000382400000726000092
:100dec0000280000002a0000692c0000812e000061
:100dfc007e30000096320000f83400008836000087
:100e0c0040380000003a0000e83c0000003e0000c2
:100e1c0000010000020300000405000006070000aa
:100e2c00486500006c6c00006f0a000000000000b8
:020000040000fa
:100e3c000200fa0000c2b30024000700004f780043
:100e4c001e80fb006f0060000000e8007900b90014
:100e5c00000078000080fa00000006000400fa0090
:100e6c0010079800b00480004d00de006140600067
:100e7c00004f780097a0a900cc62a9001e0090003a
:100e8c004800de00004078004b0e07001e0090006a
:100e9c0000407800480e0700cc62a8009e40780005
:100eac0061c060000080fb00610060004d00dd004f
:100ebc00b2048000f1ff2d00810061000100700080
:100ecc00b00488000080fa00000006000400fa005c
:100edc0020479800b00480004d00de0061406000a7
:100eec00004f780097a0a900cc62a900ae409000fa
:100efc0000c4b30000c07000204798002e40900042
:100f0c002d0e07003c0e070010479800cc62a8007d
:100f1c009e40780061c060000080fb0061006000b2
:100f2c004d00dd00b2048000f1ff2d008100610056
:100f3c0001007000b00488001e4090000080fa0090
:100f4c00000006000400fa0020479800b00480005e
:100f5c004d00de0061406000004f780097a0a900b2
:100f6c00cc42a9002e409000130e0700cc42a800e2
:100f7c009e40780061c060000080fb006100600052
:100f8c004d00dd00b2048000f1ff2d0081006100f6
:100f9c0001007000b00488000080fa000000060018
:100fac001000fa00604f9800714f980030c0b300e9
:100fbc00304798007c0037000040eb004047980019
:100fcc0001003700000000000c68ef000040eb004f
:100fdc00204798007e4890000004e0001b0032007f
:100fec0080c2b300b9ff0700504798005e409000e4
:100ffc000080fb000000d10050479800de409000bc
:10100c0010c4b30080cf50001000360010c0b300e5
:10101c00ae409000e4cf500001003e000040eb00d9
:10102c00ae4090008140e800214798000004e000a9
:10103c00020032000040eb00680037001000200076
:10104c00010020003b0d0700e5ff370097a0a90029
:10105c0000c2b300ec00070090ac21007fff07003a
:10106c006e489000b7ff07000040eb001047980057
:10107c00080037001e4090000080fb00c18c20004f
:10108c0061407800afff07001e4090000040e80070
:10109c00104798009e4090006e48900080cf500002
:1010ac00f4ff390000c8b300d700070097a0a800d0
:1010bc000000000000c8bf000004a2000004e00013
:1010cc000500320031048000000022000080600026
:1010dc000000e000f7ff32000068ef0000c2b30030
:1010ec00c900070000c6b300c7000700c08c200071
:1010fc00104078008080fb0000022000008060001f
:10110c000000e00025003400d08c20001040780056
:10111c0006e8b70066004700c40d07000100370061
:10112c00000000000cc8bf000004e0000300320007
:10113c0010c0b300004f7800270037006a0047004a
:10114c00ba0d07005e019000ee0190003e00900089
:10115c00ce009000000151008181590050c3200045
:10116c0001002000800f5100818f5900ecff3600e8
:10117c0010c0b300ce409000e3cf50000100360009
:10118c000040eb00ce4090008140e80041479800c1
:10119c000004e0008bff3a000300370010c0b300de
:1011ac00004f78000c0037003e4090000080fb00a0
:1011bc000000ea004f00de0000407800be409000c6
:1011cc008140e900314798000004e0007aff3a00c2
:1011dc000040eb00004f78001e4078000080fa00c1
:1011ec00000006000400fa00000f780011079800b8
:1011fc000040eb000080fa00000006000200fa003c
:10120c00004f7800114798001e407800ff4f5000a7
:10121c00020036000040eb001d00370040c62000e5
:10122c000eff07001e80fb00e1682800614078007b
:10123c008080fb0000e020000100700007ff070029
:10124c001e80fb00e16a2800614078008080fb0072
:10125c00000021000100700000ff070000c2b30075
:10126c006900070060042000fcfe070000c4b30006
:10127c0065000700f0c02100f8fe070000c2b300b3
:10128c006100070000c6b3005f00070010c0b30088
:10129c000080fa00000006000200fa00004f7800ff
:1012ac001e407800e74f5000020036000040eb0073
:1012bc00070037001e80fb00000040008000780013
:1012cc00004f230001007000e4fe070010c0b300c3
:1012dc000080fa00000006000600fa0010079800d3
:1012ec00210798001e019000ae019000124088006a
:1012fc002340880040012000b20c0700cc62a800fb
:10130c00cc42a800300880000040780007e8b70005
:10131c0000c0eb0008e8b7000040eb00004f78007d
:10132c00090037009e80fb00428220001004200040
:10133c000088b90000007800000041008040eb00fc
:10134c00014878001e4fe8001e407800e14f500025
:10135c00f4ff3600100020000100200070408800cf
:10136c00814088000040eb00004f780007003700f8
:10137c001e80fb009e80fb00e270280062c178009a
:10138c00418c2000827078001e4fe8001e407800cf
:10139c00e74f5000f6ff36000040eb00004f78009e
:1013ac00070037001e80fb0080004000e06c280026
:1013bc000080400010007800a8fe07001e4fe800d7
:1013cc001e407800ff4f5000f6ff360000c2b300fd
:1013dc000d00070060042000a0fe070000c4b3004d
:1013ec0009000700f0c021009cfe070000c6b300f6
:1013fc000500070087a0a90097a0a80010c0b300a3
:10140c000080fa00000006000200fa00004f78008d
:10141c001e80fb0001042000810f500019003200d7
:10142c0001042000810f500006003c000000e00089
:10143c001e00320001022000810f50001600320005
:10144c001e00370001062000810f500008003200fa
:10145c0001082000810f500018003a00600820009d
:10146c007efe070000c8b30009e8b7001300370080
:10147c006006200079fe070000c6b30009e8b7003b
:10148c000e0037006004200074fe070000c4b30097
:10149c0009e8b70009003700600220006ffe070062
:1014ac0000c2b30009e8b700040037006000200058
:1014bc006afe07000968ef00000000000080fa00d7
:1014cc00000006000c00fa00200798003107980075
:1014dc0042079800234f9800ae48900080c2b3009a
:1014ec0080cf5000020036000040eb00b700370000
:1014fc002e0090006400600000f0a7000000ea00dd
:10150c000000e9004f00de00004078000080fb0086
:10151c00610060004600dd002e019000f1fb2f0001
:10152c008100610001007000200798002e009000df
:10153c0063006000e10f500003003a002e009000a1
:10154c000070a00020079800ce409000c08c2000b6
:10155c000148780007c8bf00d18c20008048780073
:10156c000040e80007e8b70020c0b300104798001f
:10157c00ae00900000042000008060000000e0003d
:10158c00160032000040eb00004f78000c003700d2
:10159c001e4090000080fb003e0190009e80fb00ee
:1015ac008100410011417800c18c200082707800cc
:1015bc001e4090000040e800104798001e4fe800c5
:1015cc009e80fb00104080004300de006f406000f6
:1015dc000080fb00808f5000edff3500ae009000c6
:1015ec0000082000008060000000e00016003200bf
:1015fc000040eb00004f78000c0037001e409000bc
:10160c000080fb00224080009e80fb008100410096
:10161c0011417800c18c2000827078001e4090002f
:10162c000040e800104798001e4fe8009e80fb0029
:10163c00104080004300de006f4060000080fb0023
:10164c00808f5000edff35002e0090006800600088
:10165c000000e0003e0032000040eb00004f78003c
:10166c000c0037001e4090000080fb001e81fb0028
:10167c00e18020008100410011417800c18c2000e4
:10168c00827078001e4090000040e80010479800df
:10169c001e4fe8001e407800e34f5000f1ff36006b
:1016ac00704080008140800061004000e080480074
:1016bc0070408800814088001e4090000080fb0034
:1016cc00c18c20000041eb00827078001e4090001d
:1016dc000040e800104798009e4090002147980079
:1016ec000040eb00004f78000c0037001e409000cb
:1016fc000080fb009e80fb004e01900081004100a9
:10170c0011417800c18c2000827078001e4090003e
:10171c000040e800104798001e4fe8002e4890004b
:10172c009e40780080cf5000f0ff3900438c2000a1
:10173c002e499000ae409000c08c2000220907007a
:10174c001e40900000c0e8001047980013003700be
:10175c000040eb00004f78000c0037001e4090005a
:10176c000080fb009e80fb004e0190008100410038
:10177c0011417800c18c2000827078001e409000ce
:10178c000040e800104798001e4fe8002e489000db
:10179c009e40780080cf5000f0ff39001040800050
:1017ac000000d100614060000080fb0000f0a70049
:1017bc000000ea000000ea004f00de000040780064
:1017cc00804078001e409000f5fd07000080fa0074
:1017dc00000006000c00fa000040eb00004f7800ff
:1017ec002e00370064004700100c07001e80fb0021
:1017fc006600b90080007800608a200000804000fc
:10180c00104078000004e000230032002e0190000c
:10181c00be0190001e80fb006600b900000078003d
:10182c008080e800608a2000008040001000be002c
:10183c00800f5100818f5900170036002e01900047
:10184c00be0190001e80fb006600b900000078000d
:10185c008080e800608a2000008040001000be00fc
:10186c00000151008181590040422f0001002000ed
:10187c00800f5100818f5900070036001e80fb003d
:10188c006600b90080007800608a2000008040006b
:10189c008040eb00014878001e4fe8001e407800a5
:1018ac00e44f5000cfff360008c8bf00e14f4000a6
:1018bc00020032000040eb000a0137000040eb0050
:1018cc00004f7800030137009e80fb0010042000bd
:1018dc000088b90080007800408220000080400021
:1018ec009040780061c060000004e000f800320015
:1018fc009e80fb00100420000088b90000007800d6
:10190c0051822000e1407800409620000148780088
:10191c009e80fb00100420000088b90000007800b5
:10192c000004b00041822000e1407800a096200025
:10193c000148780020c0b30010479800214b80006c
:10194c0000042000008060000000e000060032006f
:10195c00104080004300de006f4060009e4090000d
:10196c0000c0400010479800214b80000008200068
:10197c00008060000000e000120032009e80fb003e
:10198c00100420000088b9008000780040822000fc
:10199c00008040008000e8001e4090000080fb00aa
:1019ac0000804000304b8800104080004300de0077
:1019bc006f4060009e40900000c0400010479800af
:1019cc00020037000000eb00304b8800204b8000f9
:1019dc00680060000000e000a30032009e80fb0065
:1019ec001e4090000080fb006401400010042000a9
:1019fc000088b900000078000200400051822000ed
:101a0c00614078000004e0000a0032009e80fb0078
:101a1c0042822000100420000088b90000007800e9
:101a2c00000041008040eb00014878000040eb00d2
:101a3c00ac003700214b80000008200000806000c3
:101a4c000000e0005d0032000040eb0020479800f1
:101a5c001b0037002e4090000080fb006700b9008f
:101a6c0000007800e400400040932000008040001b
:101a7c00104090000080fb004700de000040780022
:101a8c000004e0000b003200324b80002e4090002e
:101a9c000080fb006700b9008000780040932000b4
:101aac000080400082007800db0407000004e000a6
:101abc0007003a002e4090000040e80020479800b4
:101acc002e409000e44f5000e2ff3600010037003a
:101adc00000000002e409000e44f500037003e0004
:101aec000040eb0030479800140037003e40900057
:101afc000081fb009e80fb001e4090008081fb005b
:101b0c003e4090000080fb008081410010042000ca
:101b1c000088b900000078000300400051822000ca
:101b2c00e14078006800470002004000014878005e
:101b3c003e4090000040e800304798003e40900046
:101b4c00e34f5000e9ff36002e4090000080fb0070
:101b5c00c200dd00e0962000008040001001be00b5
:101b6c004e009000de009000800f5100818f5900d4
:101b7c000a0036009e80fb004282200010042000e8
:101b8c000088b90000007800000041008040eb00a4
:101b9c00014878000040eb00520037002e409000c6
:101bac000081fb004e009000de009000c211dd00b1
:101bbc00e2962000028141000089be001e40900088
:101bcc0065404000104798009e80fb0010042000e8
:101bdc000088b900000078000004b00041822000a9
:101bec00e14078001e40900000c150009e80fb0038
:101bfc00100420000088b90080007800408220008a
:101c0c00008040000000e800438c20009e409000c3
:101c1c002d0807000004a2000004e0000a003200b6
:101c2c009e80fb0042822000100420000088b90036
:101c3c0000007800000041008040eb000148780073
:101c4c000040eb0027003700a09620009040780061
:101c5c001e40900000c0500080c0e900a0962000fb
:101c6c000148780006003700a096200090407800cc
:101c7c001e40900080c05000a096200001487800c3
:101c8c009e80fb00100420000088b90080007800c2
:101c9c0040822000008040008000e8001e40900040
:101cac000080fb0000804000404b8800b180200089
:101cbc0091407800b0962000014878009e40780052
:101ccc00828020000149780010c0b3000500370065
:101cdc001e4fe8001e407800e14f5000fafe36001f
:101cec000040eb000080fa00000006000000fa0043
:101cfc0008c8bf00e14f50000b003e0008c8bf00f1
:101d0c008080fb0042822000100420000088b90073
:101d1c0000007800000041008040eb000148780092
:101d2c0000c0eb0008e8b7000080fa0000000600d5
:101d3c0000a0fe003600f800849fbe00869fbe0007
:101d4c00889fbe003400f80004002000a401880025
:101d5c001200fa00310480000000220000806000b4
:101d6c000000e000a2013200b1048000000022005b
:101d7c00008060000000e0009d0132009180200096
:101d8c009140780000c6b30080cf500092013a0019
:101d9c0080c2b3004dfc07000080fb000000d100a6
:101dac00004078000ae8b7000ac8bf000be8b7008b
:101dbc00cc42a900900a0700004f9800cc42a80022
:101dcc000040eb00104798000e0037001e409000ba
:101ddc008080fb00100420000088b900800078008f
:101dec0040822000008040009040780061c060007c
:101dfc000004e000070032001e4090000040e800a4
:101e0c00104798001e409000e14f5000efff360045
:101e1c0001003700000000000e489000e24f500017
:101e2c0003003a0010c0b30040479800020037008e
:101e3c000040eb00404798008e489000e0c3b30090
:101e4c0080cf50000a003e000e4890000004e000d5
:101e5c00070032001e409000e14f50001400360085
:101e6c004e4090000004a2000004e000100032007c
:101e7c00a0c1b30015fc07005047980006003700be
:101e8c00cc42a9005c0a0700cc42a800a0c1b30058
:101e9c000efc0700504798005e4090000080fb004d
:101eac00620060000000e000f5ff3a004e013700d0
:101ebc000040eb00004f78000e4890000080fb00c3
:101ecc0010079800400137001e0090000000e90048
:101edc00100798004e4090000004e000080032000b
:101eec00cc42a9001e84fb00430a0700880047006f
:101efc00904898001e4fe800cc42a8000f00370015
:101f0c00cc42a9001e4090008084fb001e84fb0084
:101f1c00390a070000417800538220001004200089
:101f2c0000c8b900000078000800400000804100a3
:101f3c00024878001e4fe800cc42a8000e489000e2
:101f4c009e40780080cf50001f0139004e40900019
:101f5c000004e000270032001e4890000080fb00c7
:101f6c0063006000e20f500009003a00ae48900098
:101f7c0006c8bf0080cf500002003a0010c0b3006a
:101f8c000ce8b7000040eb00004f7800160137005a
:101f9c001e409000e14f5000030036000040eb0063
:101fac00004f7800b2ff37001e4090008080fb008d
:101fbc001e49900053822000100420000088b900b4
:101fcc000000780000804100024878001e4090001c
:101fdc008080fb002e4990005382200010042000ca
:101fec000088b90000007800008041000000e80083
:101ffc00024878001e4090008080fb004282200046
:10200c00100420000088b900000078000000410096
:10201c000004b0000e4990000248780000c0eb00ac
:10202c00704798001e4090008080fb001004200038
:10203c000088b900000078005182200061407800cf
:10204c008080fb0000042000008060000000e000a5
:10205c002d0032000040eb00604798002200370052
:10206c001e4090008080fb006e4090000080fb00c2
:10207c000081e800100420000088b90000007800fe
:10208c000200400051822000e14078002240800094
:10209c006e4090000080fb00000041001040780072
:1020ac0080cf50000d0032000040eb00004f780054
:1020bc001e4090008080fb00428220001004200013
:1020cc000088b90000007800000041000004b00056
:1020dc008040eb000148780065ff37006e409000af
:1020ec000040e800604798006e4090008080fb0044
:1020fc00104080004300de006f4060000080fb0059
:10210c00808f5000d6ff35001e4090008080fb0071
:10211c00100420000088b9000000780051822000d3
:10212c00614078008080fb0000022000008060008d
:10213c000000e000330032000040eb0060479800e4
:10214c000b0037006e4090000080fb00ee409000ca
:10215c008180fb00c28c2000e2c0780000004700a8
:10216c00114898006e4090000040e80060479800cd
:10217c006e409000e14f5000f2ff3600c08c200002
:10218c0061c0b300014878001e4090008080fb00c5
:10219c00100420000088b900000078000000e8005e
:1021ac0051822000e1407800d08c2000014878005a
:1021bc0087a0a9008040eb0020c0b30078fb07008b
:1021cc000040eb00604798000b0037006e40900019
:1021dc000080fb00ee4090008180fb0081004700f6
:1021ec0011499000c18c2000827078006e409000e4
:1021fc000040e800604798006e409000e14f5000ae
:10220c00f2ff36000040eb006047980038003700c2
:10221c006e4090000080fb006600b90080007800e2
:10222c00608a200000804000104078000004e0002c
:10223c001d0032006e4090000080fb006600b9006b
:10224c0080007800608a20000080400010419000df
:10225c001e4090008080fb00100420000088b90014
:10226c00000078000000e8005182200061407800f6
:10227c00804f51000c003a006e4090000080fb0033
:10228c006600b90080007800808a2000008440003d
:10229c006e004700650907007e0190008e099000d2
:1022ac00028cbe00150037007e409000e14f4000cc
:1022bc000c003a006e4090000080fb006600b900f4
:1022cc0080007800608a2000008040001040780078
:1022dc000004a2000004e00002003200ee41900075
:1022ec00734798006e4090000040e80060479800eb
:1022fc006e409000e44f5000c5ff36006e409000d9
:10230c00e44f5000370036007e409000e44f500000
:10231c0022003e007e4090000080fb006600b90069
:10232c0080007800608a20000080400011c0b3005b
:10233c00014878007e4090008081fb001e40900098
:10234c008080fb00100420000088b9000000780099
:10235c000000e80051822000614178006618b90045
:10236c0080007800608a20000080400012409800b5
:10237c007e4090000080fb006600b9008000780071
:10238c00808a2000008440006e0047002709070067
:10239c007e0190008e099000028cbe001e409000c1
:1023ac008080fb00100420000088b90080007800b9
:1023bc004082200080804000114078000000a00086
:1023cc0080487800080037001e0090000000e000f4
:1023dc00bdfe3a000400370010c0b30000e8b7009f
:1023ec00010037000000000087a0a90000000000d9
:1023fc000080fa003400f9004f04be004f03be0009
:10240c004f02be003600f9000080fe0000400600be
:10241c000000fa00000000000080fa000000060036
:10242c000600fa0016c8bf00684060000004e00017
:10243c00a3013a00e7fc07000004e000a001320011
:10244c00809520008040eb0001487800204b8000f4
:10245c004200de0061406000634060000080fb00d1
:10246c0063006000c24a8000c1ff2f008100610040
:10247c0001007000c04a8800204b80004300de0041
:10248c00614060000080fb00610060004300dd00e3
:10249c00c24a800071ff2f008100610001007000b2
:1024ac00c04a8800204b8000630060000000a2003e
:1024bc0000f0a7000000ea000000e9004f00de0079
:1024cc00004078000080fb00610060004500dd00ea
:1024dc00c24a8000f1fd2f008100610001007000f4
:1024ec00c04a8800204b80004700de00614060003d
:1024fc000080fb00610060004600dd00c24a8000e5
:10250c00f1fb2f008100610001007000c04a8800bf
:10251c00214b800000082000008060000000e000db
:10252c0002003200304b8000e04a8800a096200068
:10253c00904078000096200001487800404b8000c5
:10254c00f04a8800c0962000904078002096200029
:10255c0001487800b096200090407800109620003a
:10256c0001487800c14a8000000220000080600011
:10257c000000e00043013200f04a80001040780077
:10258c000080fb0071082000810f50006e003200ab
:10259c0071082000810f500007003c00110820003a
:1025ac00810f50000e00320021082000810f5000d6
:1025bc00a30032003101370021092000810f5000a7
:1025cc000101320071092000810f5000f700320028
:1025dc0011092000810f5000e8003200270137005c
:1025ec000040eb0010479800f04a80000000e80023
:1025fc009040780012c8bf0080cf5000020032001b
:10260c00bafd0700200137001ec8bf00e34f500081
:10261c0002003a00b5fd07001b01370076030700e6
:10262c00104798001ec8bf00e14f500008003a0048
:10263c001e409000e14f5000050032001e409000fb
:10264c00e24f50000200320030cfb3001047980028
:10265c001368ef0013c8bf008080fb00c2902000fd
:10266c0013c9b30003f178000040e80013e8b70089
:10267c0013c8bf008080fb00c29020009e419000d8
:10268c0003f178000040e80013e8b7001e4090000a
:10269c000004e000030032001e409000e14f5000a7
:1026ac0018003a0013c8bf008080fb004381200053
:1026bc0093417800c290200003f178000040e800bc
:1026cc0013e8b7000040eb00004f78000a00370019
:1026dc0013c8bf008080fb001e81fb0023822000fa
:1026ec00e3417900c290200003f178000040e8003b
:1026fc0013e8b7001e4fe8001e4078000004e0000d
:10270c00f3ff320079fd0700c04a80004300de0071
:10271c00614060000080fb0000f0a7000000ea00b0
:10272c000000ea004f00de0080407800e04a8000a4
:10273c008141780012c0b300800078000040eb00ab
:10274c0030010700d00037001ec8bf00e24f500018
:10275c000200360065fd0700cb003700f04a800010
:10276c000000e8009040780012c8bf0080cf5000f5
:10277c00020032005dfd0700c30037001368ef0054
:10278c0013c8bf008080fb00c290200073c9b30047
:10279c0003f178000040e80013e8b70013c8bf004d
:1027ac008080fb004381200093417800c290200080
:1027bc0003f178000040e80013e8b7000040eb009c
:1027cc00004f78000a00370013c8bf008080fb0060
:1027dc001e81fb0023822000e3417900c29020007f
:1027ec0003f178000040e80013e8b7001e4fe80042
:1027fc001e4078000004e000f3ff32003bfd0700b0
:10280c00c04a80004300de00614060000080fb0095
:10281c0000f0a7000000ea000000ea004f00de0014
:10282c0080407800e04a80008141780012c0b300fb
:10283c00800078000040eb00f200070092003700a7
:10284c001368ef0013c8bf008080fb00c29020000b
:10285c0023c9b30003f178000040e80013e8b70087
:10286c000040eb00004f7800260037001e80fb0074
:10287c006700b90000007800e4004000409320009d
:10288c0000804000104090000080fb004700de00fc
:10289c00004078000004e000190032001e80fb00ac
:1028ac006700b900800078004093200080804000d1
:1028bc00e04a8000580107000004e00010003200dc
:1028cc001e80fb00529320006700b90000007800c6
:1028dc0000004100640040008040eb00014878009b
:1028ec0013c8bf008080fb00c29020008041eb0029
:1028fc0003f178000040e80013e8b700040037004b
:10290c001e4fe8001e407800e44f5000d7ff360001
:10291c00f6fc07001e407800e54f500007003a0017
:10292c0013c8bf008080fb00c290200003cfb3000f
:10293c0003f178000040e80013e8b700c04a8000bb
:10294c004300de00614060000080fb0000f0a70047
:10295c000000ea000000ea004f00de008040780032
:10296c00e04a80008141780012c0b30080007800fa
:10297c000040eb00a300070043003700f04a800042
:10298c000000e800104078000080fb006000400070
:10299c00e10f500002003e009702070001003700d3
:1029ac0000000000d1fc07003700370016c8bf003c
:1029bc000042b2000004e0000100320016a8a90099
:1029cc00cafc070030003700f04a80000000e80025
:1029dc00104078000004e00025003a000040eb00b5
:1029ec00004f78001f0037001e80fb006700b90005
:1029fc0000007800e400400040932000008040007c
:102a0c00104090000080fb004700de000040780082
:102a1c000004e000120032001e80fb006700b900c9
:102a2c00800078004093200080804000e04a8000c5
:102a3c00f90007000004e000090032001e80fb00d2
:102a4c00529320006700b90000007800000041009c
:102a5c00640040008040eb0001487800040037001f
:102a6c001e4fe8001e407800e44f5000deff360099
:102a7c009efc070000000000030037001668a80049
:102a8c00010037001668a80000962000104078005e
:102a9c000004e0000800320016c8bf00704060005f
:102aac000004e00004003a0016c8bf000042b20067
:102abc000004e000020032001668a9008bfc07003d
:102acc000080fa00000006000800fa006047980039
:102adc001668ef000040eb00004f7800090037004b
:102aec001e80fb00529320006700b90000007800a4
:102afc0000004100640040008040eb000148780079
:102b0c001e4fe8001e407800e44f5000f4ff3600e2
:102b1c00400707001368ef000040eb00004f7800ff
:102b2c00070037001e80fb00c200dd00e09620008d
:102b3c00008140006000b8000089be001e4fe80014
:102b4c001e407800e44f5000f6ff3600209920001c
:102b5c00200798001e0090000010a000100798009d
:102b6c001e0090000030a0000040a1000050a0000a
:102b7c000060a100100798006e4090000080fb00e0
:102b8c00610060004200dd001e019000b1ff2f00cb
:102b9c008100610001007000100798001e00900079
:102bac000000a100100798001e009000ae009000dd
:102bbc00c9f9070012c8bf004d0107001468ef00e7
:102bcc0014c8bf000004a00014e8b70014c8bf006c
:102bdc000034a00014e8b7001ec8bf000080fb0042
:102bec004400dd008040780014c8bf0000c07000b5
:102bfc0014e8b70097a0a80010c0b3000080fa003a
:102c0c00000006000c00fa0060479800410798008d
:102c1c00224f9800334f98000040eb00204798005b
:102c2c002e489000634060000080fb006300600051
:102c3c001e019000c1ff2f00810061000100700097
:102c4c00100798006e4090000004e0000200320073
:102c5c000040eb000100370010c0b3000080fb0007
:102c6c00610060004500dd001e019000f1fd2f00a9
:102c7c008100610001007000100798006e40900008
:102c8c000080fb00610060004200dd001e0190002e
:102c9c00b1ff2f0081006100010070001007980047
:102cac003e4890000080fb00610060004300dd00a6
:102cbc001e01900071ff2f00810061000100700067
:102ccc00100798006e4090000004e00002003200f3
:102cdc000040eb000100370010c0b3000080fb0087
:102cec00610060004600dd001e019000f1fb2f002a
:102cfc008100610001007000100798001e00900018
:102d0c0063006000e10f500004003a001e009000c8
:102d1c000070a00010079800030037001e00900000
:102d2c000070a10010079800ce00900021079800b9
:102d3c0013c8bf0080417800c29020001e00900094
:102d4c00ae009000dff90700004f78001368ef0029
:102d5c001e4078000080fa00000006000200fa0015
:102d6c00004f78009e4178000041eb008000eb00a2
:102d7c0010c0b300a3ff07000080fa00000006009b
:102d8c000200fa00004f7800114798001e80fb00eb
:102d9c006700b90000007800e40040004093200078
:102dac0000804000104090000080fb004700de00d7
:102dbc00004078000004e000090032001e80fb0097
:102dcc006700b9008000780040932000008040002c
:102ddc001e41900011c0b300040007000100370031
:102dec000040eb000080fa00000006000400fa002e
:102dfc00000f78002147980032479800be419000a0
:102e0c000041eb009e0078000040eb007dff0700c6
:102e1c000080fa00000006000600fa001007980077
:102e2c00210798000040eb00004f78000d003700a0
:102e3c001e80fb009e0090000080400090407800b7
:102e4c001e80fb002e019000000041001040780015
:102e5c0080cf5000020032000040eb00050037002c
:102e6c001e4fe8001e407800e44f5000f0ff360083
:102e7c0010c0b3000080fa00000006000600fa0043
:102e8c00004f78001147980012079800230798000c
:102e9c001e80fb00e10f500006003200e20f5000d4
:102eac00060032000000e00006003a0010c0b3003b
:102ebc00050037000040eb00030037000040eb003a
:102ecc00010037000040eb000080fa000000060013
:102edc000e00fa00404f9800514f9800e1812000fd
:102eec00914078003147980030c0b300004f780013
:102efc000040eb00104798005e489000e14f5000f6
:102f0c0002003a0000c0eb0072003700640047007a
:102f1c00460607002e019000be019000c0bd2000a7
:102f2c00f1ff2f000200400083804800200798002a
:102f3c00310798001e68ef001688a8005d00370066
:102f4c0068004700390607004e019000de01900032
:102f5c002e009000be0090000001510081815900ac
:102f6c0040422f0001002000800f5100818f59003a
:102f7c004a0036004e009000de00900020079800ba
:102f8c00310798001e4090000080fb000000ea0012
:102f9c004f00de00004078009e4090008140e90028
:102fac00114798000004e00041003a0010c0b30043
:102fbc00104798001e80fb000000e9004f00de0067
:102fcc00004078001e4fe9000004e00003003200ce
:102fdc001688a90000c0eb003e0037001368ef0014
:102fec0013c8bf008080fb00c290200013c8b30040
:102ffc0003f178000040e80013e8b70013c8bf00e5
:10300c008080fb002381200093417800c290200037
:10301c0003f178000040e80013e8b70013c8bf00c4
:10302c008080fb004381200093417800c2902000f7
:10303c0003f178000040e80013e8b7000040eb0013
:10304c00204798000d00370013c8bf008080fb009c
:10305c002e4190000281fb0023822000e341790085
:10306c00c290200003f178000040e80013e8b7009c
:10307c002e4090000040e800204798002e40900021
:10308c000004e000f0ff32008041eb0012c0b300fe
:10309c008000eb0010c0b300dafe0700230007002d
:1030ac000004e000030032000c00070001003700b0
:1030bc000000000016c8bf00704060000004e00073
:1030cc009fff3a00be409000e28120000149780049
:1030dc0015c8bf000080fa00000006000000fa00ce
:1030ec001668a90001fb07000080fa00000006002a
:1030fc000200fa00004f78008040eb001e40780080
:10310c003ef807000004e000050032001e41780084
:10311c00218120008248780010c0b30001003700e4
:10312c000040eb000080fa00000006000000fa00ee
:10313c00bbfc070016c8bf000080fb004300de008c
:10314c00614060000080fb0000f0a7000000ea0076
:10315c000000ea004f00de00004078000080fa001a
:10316c00000006000400fa00204798002e40900052
:10317c00e54f500012003600405f2800ef030700b7
:10318c000040eb00004f7800060037001e80fb006b
:10319c00640010002199200061407800130407009e
:1031ac001e4fe8001e407800e44f5000f7ff360039
:1031bc0070602800e103070012c8bf00220407005a
:1031cc002e409000e44f500040003e00306128003b
:1031dc00da0307002e4090000080fb006700b90066
:1031ec0000007800e4004000409320000080400084
:1031fc00104090000080fb004700de00004078008b
:10320c000004e0007a0032002e409000f703070023
:10321c0030642800c90307000040eb00004f780021
:10322c00110037001e407800e44f50000b003e00a8
:10323c002e4090000080fb009e80fb0064811000fb
:10324c006700b900000078000200400041932000a4
:10325c0061407800e5030700020037001065280084
:10326c00b60307001e4fe8001e407800e74f5000e1
:10327c00ecff360040652800b00307000040eb006f
:10328c00004f78000b0037002e4090000080fb00b0
:10329c001e81fb006700b9000000780002004000ae
:1032ac00660040004193200061407800cf03070086
:1032bc001e4fe8001e4078000004e000f2ff3200d0
:1032cc00906528009d03070049003700c065280061
:1032dc009a0307000040eb00004f780041003700d4
:1032ec001e80fb006700b90000007800e40040007d
:1032fc004093200000804000104090000080fb00b4
:10330c004700de00004078000004e000340032008a
:10331c001e407800b50307003064280087030700bf
:10332c000040eb0010479800130037001e4090003f
:10333c00e44f50000b003e001e80fb009e409000ae
:10334c008180fb00648110006700b90000007800e8
:10335c00020040004193200061407800a303070065
:10336c000200370010652800740307001e4090000f
:10337c000040e800104798001e409000e74f5000b6
:10338c00eaff3600406528006c0307000040eb00a4
:10339c00104798000d0037001e80fb009e409000e7
:1033ac000181fb006700b9000000780002004000ba
:1033bc006600400041932000614078008b030700b9
:1033cc001e4090000040e800104798001e409000fe
:1033dc000004e000f0ff320090652800570307005e
:1033ec001e4fe8001e407800e44f5000bcff360032
:1033fc000080fa00000006000400fa000040eb0018
:10340c001047980000c0eb00204798000040eb00ec
:10341c00004f7800200037001e80fb006700b900c9
:10342c0000007800e4004000409320000080400041
:10343c00104090000080fb004700de000040780048
:10344c000004e0000e0032001e80fb006700b90093
:10345c00800078004093200080804000e04a80008b
:10346c006dfe07000004e0000a0032009e40780068
:10347c002147980010c0b30010479800090037008e
:10348c002e409000e14f400002003a001e417800af
:10349c00224798001e4fe8001e407800e44f500071
:1034ac00ddff36002e409000e14f400002003a0054
:1034bc0010cfb300560037001ec8bf000004e00058
:1034cc00020032001e409000510037000040eb001b
:1034dc00004f78000e0037002e4090000080fb005b
:1034ec001e82fb00e24a80009e80fb0081004100ae
:1034fc0011417800439320006700b9000000780068
:10350c000400400000804100024878001e4fe80093
:10351c001e407800e74f5000efff36002e40900021
:10352c000080fb006700b9008000780080932000c9
:10353c0080804000114090000070a00090409800e6
:10354c002e4090008080fb00f04a80000080e80054
:10355c001040780061406000614060006140600094
:10356c006709b900020178008193200081004100b5
:10357c006140600091419000e2cfb30002c1610054
:10358c0000407100904098000040eb00004f780024
:10359c00100037002e4090000080fb009e81fb0045
:1035ac00f24a80009e80fb00e380400081004100d5
:1035bc0011417800449320006700b90000007800a6
:1035cc000000420003004000660040000248780002
:1035dc001e4fe8001e4078000004e000edff3200b2
:1035ec002e4090000080fb00c200dd00e096200021
:1035fc00008140006000b8000089be002e419000a0
:10360c0051812000824878001688a9001e40900045
:10361c000080fa00000006000800fa0060479800dd
:10362c006e409000e14f400038003a000040eb0043
:10363c00004f7800310037001e80fb006700b90096
:10364c0000007800e400400040932000008040001f
:10365c00104090000080fb004700de000040780026
:10366c000004e0001c0032001368ef0013c8bf0018
:10367c008080fb00c290200023c8b30003f17800c7
:10368c000040e80013e8b7001e80fb006700b9009b
:10369c008000780040932000008040008041eb00c7
:1036ac0012c0b300800078000040eb0055fd07000d
:1036bc000000eb0010079800030037001e0090007c
:1036cc000000e800100798009e009000e0ff20002a
:1036dc00808f5000f9ff36001e80fb0052932000b3
:1036ec006700b90000007800000041006400400051
:1036fc008040eb00014878001e4fe8001e40780027
:10370c00e44f5000ccff3600330037006e40900081
:10371c000080fb006700b90000007800e400400066
:10372c004093200000804000104090000080fb007f
:10373c004700de00004078000004e0002600320064
:10374c001368ef0013c8bf008080fb00c2902000fc
:10375c0023c8b30003f178000040e80013e8b70079
:10376c006e4090000080fb006700b900800078007c
:10377c0040932000008040008041eb0012c0b30059
:10378c00800078000040eb001efd07000000eb00fd
:10379c0020079800030037002e0090000000e8007e
:1037ac0020079800ae009000e0ff2000808f5000b2
:1037bc00f9ff36006e4090000080fb005293200011
:1037cc006700b90000007800000041006400400070
:1037dc008040eb00014878000080fa0000000600f1
:1037ec000200fa00004f78001e407800e34f5000b2
:1037fc000c003e001e417800e181200082487800d8
:10380c0014c8bf00ef4060001ec8bf000080fb0062
:10381c004400dd000040780000c0700014e8b700e0
:10382c0001003700000000000080fa0000000600d4
:10383c000e00fa0050079800610798005e00900097
:10384c00100f78005e0090000080e8009000780077
:10385c00110798000000eb002007980070e3290086
:10386c00400798000040eb00604798002b003700a1
:10387c001e009000c400dd001e0090004500de001c
:10388c00808068001e009000808040002e00900018
:10389c0063006000000040006e01900000004100d9
:1038ac00100178002e00900000004100008068009c
:1038bc001e0f4000ae0090004e00900000804000b3
:1038cc00200798001e007800c400dd001e00780060
:1038dc004500de00008068009e0040002e00900035
:1038ec004b00de0063006000000040006e019000a1
:1038fc0000004100100178002e00900000004100f3
:10390c00008068009e009000008040001007980026
:10391c006e4090000040e800604798006e409000b8
:10392c00ff4f5000d2ff36005e0090001e0878005a
:10393c005e0090000080e8009e0090000108780076
:10394c000080fa00000006000c00fa002007980026
:10395c006147980042079800530798006e4090000a
:10396c000080fb004200de00004078000040e800d0
:10397c00204798000040eb00004f780041003700d2
:10398c000040eb00104798000c0037001e409000e0
:10399c000080fb009e4090008180fb005e01900047
:1039ac0081004100114178008199200082707800db
:1039bc001e4090000040e800104798001e40900008
:1039cc00e24f5000f1ff3600b09920001e487800fd
:1039dc00ce0090008099200095ff07000040eb007e
:1039ec0010479800210037001e80fb00c200dd004c
:1039fc001e4090000080fb00808040006e409000d4
:103a0c000080fb00808f50001c003d001e80fb00de
:103a1c00c200dd001e4090000080fb0000804000d2
:103a2c00ae009000008040009e80fb004209dd004b
:103a3c009e4090008180fb00810041002e0190008f
:103a4c0081004100114178009e4090008180fb0074
:103a5c0083992000e3c07800814069000148780018
:103a6c001e4090000040e800104798001e40900057
:103a7c00e34f5000dcff360001003700000000006f
:103a8c001e4fe8002e4090009e40780080cf5000e2
:103a9c00bbff39000080fa00000006000c00fa00a1
:103aac002007980061479800420798005307980038
:103abc006e4090000080fb004200de000040780069
:103acc000040e800204798000040eb00004f7800d1
:103adc00060037001e80fb00de00900000804000d6
:103aec008040eb00014878001e4fe8001e40780033
:103afc00e34f5000f7ff36000040eb00004f78001a
:103b0c002b0037000040eb00104798001f003700d7
:103b1c001e80fb00c200dd001e4090000080fb00f8
:103b2c00808040006e4090000080fb00808f500031
:103b3c001a003d001e4090000080fb00de0090004b
:103b4c00008040009e4090008180fb005e01900050
:103b5c0081004100114178009e80fb00c209dd000c
:103b6c009e4090008180fb0081804100ae0190005e
:103b7c0081804100914078008140690001487800c3
:103b8c001e4090000040e800104798001e40900036
:103b9c00e34f5000deff360001003700000000004c
:103bac00ce0090005e00900021ff07001e4fe80041
:103bbc002e4090009e40780080cf5000d1ff3900fd
:103bcc000080fa00000006000800fa0010079800b8
:103bdc00414798005247980033079800ce40900018
:103bec005e40900000c04000839920003e01900090
:103bfc00804078001e009000a8ff07000040eb00fa
:103c0c00004f78000e0037004e4090008080fb0083
:103c1c005e4090000080fb00808040001e80fb0016
:103c2c00008040009e009000008040009e80fb00c1
:103c3c0082992000e2c07800014878001e4fe8000d
:103c4c001e407800e34f5000efff36000040eb00c1
:103c5c00004f78000e0037009e80fb004e40900015
:103c6c001e417800804f5100050031001e80fb0082
:103c7c001e01900000004100104078000100370048
:103c8c000040eb008299200000f178001e4fe80004
:103c9c001e407800e24f5000efff36005e4090006f
:103cac00e44040004e4090000080fb001e0190005c
:103cbc0000004100839920003e01900022ff070084
:103ccc000080fa00000006000800fa0010079800b7
:103cdc004147980052479800330798000040eb008a
:103cec00004f78000e0037009e80fb004e40900085
:103cfc001e417800804f5100050031001e80fb00f2
:103d0c001e019000000041001040780001003700b7
:103d1c000040eb008299200000f178001e4fe80073
:103d2c001e407800e24f5000efff36004e409000ee
:103d3c000080fb009e0090000080400083992000d2
:103d4c003e019000de409000fffe0700ce40900048
:103d5c005e40900000c0400000c0e9008399200044
:103d6c003e019000804078001e0090004bff070041
:103d7c000040eb00004f7800130037001e80fb0062
:103d8c0081992000e14078004e4090000081fb00ba
:103d9c005e4090000080fb00000041000081e900c3
:103dac001e80fb00000041001e019000000041003d
:103dbc001040780080cf5000020032000040eb0031
:103dcc00050037001e4fe8001e407800e14f500000
:103ddc00eaff360010c0b3000080fa0000000600b5
:103dec000600fa000040eb00104798000040eb0082
:103dfc00204798000040eb00304798000040eb0053
:103e0c0040479800620420006004200071052000e7
:103e1c002374200080497800814978008249780019
:103e2c00720520006004200071052000237420001e
:103e3c0080497800814978008249780042c7a900fe
:103e4c00ff010700a70007006204200060042000a7
:103e5c007105200023742000804978008149780086
:103e6c008249780072052000600420007105200052
:103e7c0023742000804978008149780082497800b9
:103e8c0042c7a8002101070060712800ab000700a1
:103e9c00c402a9000040eb000bfb070023c8bf00c5
:103eac0093fc07000004a2000004e00005003200af
:103ebc0023c8bf008c0107000000eb000080fa0053
:103ecc00000006000040eb0045fe070023c8bf00c1
:103edc008040eb00220107008040eb0000c0eb00ab
:103eec00fbfb0700004f78001e407800e14f4000bc
:103efc000400320023c8bf0011c0b3001801070032
:103f0c00040037006011b800a1c0b3000040eb0002
:103f1c00dafb070000c0eb0092fc0700c402a8000b
:103f2c002401070081fc07000004e00009003200b6
:103f3c00230107004e4090000040e80040479800e5
:103f4c00ce4090003e4090006201070063fc0700e9
:103f5c00f4ff370073010700504798005e40900053
:103f6c000080fb00e10f500003003200e20f500014
:103f7c002b0032005a0037001368ef000040eb00b2
:103f8c00004f780017003700328120001241780072
:103f9c008281fb001e4090008080fb0060002000ae
:103fac0000027800110009008480d8008000fd0018
:103fbc00004078000080fb001e82fb007500b900f9
:103fcc000000780004004000e1292800e14078005e
:103fdc00c090200001f079000240e80013e8b7001f
:103fec001e4fe8001e407800f44f5000e6ff3600ec
:103ffc001e4090000040e800104798000040eb0085
:10400c0056fb07003e4090000040e8003047980007
:10401c00ce4090003e4090002e010700300037004b
:10402c001368ef000040eb00004f780017003700da
:10403c0032812000124178008281fb002e409000da
:10404c008080fb0060002000000278001100090055
:10405c008480d8008000fd00004078000080fb00c8
:10406c001e82fb006b00b9000000780004004000c9
:10407c00c1312800e1407800c090200001f07900a7
:10408c000240e80013e8b7001e4fe8001e4078001d
:10409c00ea4f5000e6ff36002e4090000040e8004a
:1040ac002047980011c0b3000040eb0034fb070020
:1040bc000004a2000004e00002003200140107001a
:1040cc00030037003e4090000040e8003047980065
:1040dc00ce4090003e409000fe0007000000000023
:1040ec0090ff37000000fa002135800000fe2f0001
:1040fc0000806000a000b30020358800513680009d
:10410c00f00f2e0080806000003020000100700055
:10411c0050368800c0002000401188008560a9003e
:10412c002222ef00000820000011880021e2a800e4
:10413c002342a8000080fa00000006000400fa00e8
:10414c0010079800020037001e4078000e00070090
:10415c001e00900010407800004f78001e80fb007d
:10416c000000ea004f00de00004078009e00900046
:10417c008100e800110798000004e000f2ff3a000b
:10418c000080fa00000006000200fa00004f7800e0
:10419c000000000011118000001020000080600061
:1041ac000000e000fbff32001e80fb0020118800a5
:1041bc000080fa00000006000200fa000000000077
:1041cc002104800000802000008060000000e000de
:1041dc00fbff320030118000004f78008560a90091
:1041ec001e4078000080fa00000006000400fa006f
:1041fc0020479800ae409000014f78002e40900070
:10420c000080fb004400de00204798002e40900008
:10421c000080fb002198200061407800daff070045
:10422c009e4078006fc06000204798002e409000a0
:10423c000080fb002198200061407800d2ff07002d
:10424c000080fa00000006000200fa00004f78001f
:10425c0030c6b3009e40780080cf50000a00360074
:10426c009e80fb0040062000000178001100090030
:10427c008280d800004078000080fb00219820004c
:10428c0061407800c0ff07001e407800e94f5000e5
:10429c00110036009e80fb004006200000017800d3
:1042ac00110009008280d8008000fd0000407800d9
:1042bc008080fb00a00020000001780011000900a4
:1042cc008280d800004078000080fb0021982000fc
:1042dc0061407800acff07009e80fb00a00020002e
:1042ec0000017800110009008280d8008000fd00d8
:1042fc00004078000080fb0021982000614078008d
:10430c00a1ff07000080fa00000006000000fa0080
:10431c00e035280089ff0700a039280087ff070037
:10432c00903b280085ff0700003d280083ff070015
:10433c000041280081ff0700e04428007fff0700b0
:10434c00004928007dff0700204d28007bff070057
:10435c00e050280079ff07000080fa0000000600fa
:10436c000200fa00004f7800114798001e409000a0
:10437c000004e00007003a00305128006fff0700ee
:10438c001e407800b0ff0700105328006bff070099
:10439c00060037004053280068ff07001e407800d5
:1043ac00a9ff07001053280064ff07000080fa00e3
:1043bc00000006000000fa000080fa000000060071
:1043cc000200fa00c04a8000680060000000e000b3
:1043dc00020032001055280058ff0700c04a800028
:1043ec00630060000000e00003003200a0552800cc
:1043fc0052ff070002003700605728004fff0700ec
:10440c00109620001040780078ff0700c14a800009
:10441c0000042000008060000000e0001c0032005e
:10442c000059280045ff0700c14a80000008200001
:10443c00008060000000e00008003200e04a8000cc
:10444c000000e8001040780068ff0700e04a800098
:10445c001040780065ff07000d0037000040eb00ae
:10446c00004f780007003700e14a80001e80fb00f7
:10447c006400100000804000104078005bff0700d3
:10448c001e4fe8001e407800e44f5000f6ff360047
:10449c007059280029ff07000040eb00004f7800fe
:1044ac0006003700f14a80001e80fb0000804000af
:1044bc001040780034ff07001e4fe80000962000e3
:1044cc00104078009e4f5000f6ff3e000080fa002e
:1044dc00000006000200fa00004f78001147980017
:1044ec000080fa00000006000200fa00004f78007d
:1044fc00a059280011ff07001e40780052ff07004a
:10450c00205b28000dff07000080fa000000060069
:10451c000000fa00005e280008ff07000080fa0087
:10452c00000006000000fa000040eb000080fa00da
:10453c00000006000800fa002007980031079800d8
:10454c00be009000800220000088b90000017800b5
:10455c002e0090006000b9000000780000014100be
:10456c00ae009000800220000008b800010141005c
:10457c0082007800008fbe001e00be00c002b10099
:10458c000180b100008fbe001e00be00e00f500085
:10459c00e08f580009003400040037001e00be00f4
:1045ac006b005000e0805800008fbe001e00be0063
:1045bc00e00f5000e08f5800f8ff3c000080fa003c
:1045cc00000006000400fa00100798000f003700e6
:1045dc0040c0b300004f780003003700900120006a
:1045ec0001002000d3ff07001e4078008080fb00f4
:1045fc008100ea00cf08de00814078000040e9002d
:10460c00004f78000104e000f4ff3a001e00900017
:10461c0000f0a7000000ea000000ea004f00de00f6
:10462c00004078009e0090008100e900110798007e
:10463c000004e000e6ff3a000080fa0000000600eb
:10464c000000fa00c042a800c002a900c8e2a800fd
:10465c00c902a800c922a900c8c2a900cd22a9007c
:10466c00ccc2a9004135800000fe2f000080600004
:10467c000030a000403588003136800000fe2f004d
:10468c00008060000030a000303688004136800089
:10469c00f00f2e0080806000007020000100700080
:1046ac0040368800c842a900cc42a800c862a900c4
:1046bc00cc62a800c8e2a8001134800000fe2f00d4
:1046cc00008060007000b30010348800c01320001c
:1046dc001012880000002800001288008220a90017
:1046ec008240a900b2c0a800b2a0a900b280a90063
:1046fc00ae40a800ae20a900ae00a90087a0a9007a
:08470c000080fa000000060025
:020000040000fa
:1047140024080000e8000000000000000008000079
:1047240012000000000000009809000004000000ce
:1047340000000000920900000600000002000000d2
:10474400ff112200334400000c0900007600000031
:104754000000000012080000060000000000000035
:104764001e08000002000000020000000300000018
:104774008209000010000000020000003031320005
:10478400333435003637380039414200434445005c
:1047940046000000200800000200000000000000a5
:1047a40018080000060000000000000022080000b5
:1047b40002000000020000000119000000000000d7
:020000040000fa
:1047c4000400fa00204798008540a90040128000a8
:1047d400004f78002e4090000080fb0040128800bb
:1047e40000000000210480000040200000806000e0
:1047f4000000e000fbff32000080fa000000060029
:104804000000fa000040eb00edff070040128000ba
:10481400004078000080fa00000006000000fa0062
:10482400800220008008880011e1a8000080fa00be
:10483400000006000400fa005108800011079800e7
:1048440031088000010f78001e019000510880009b
:10485400810f5100040032005108800011079800b4
:1048640031088000010f78003e1878002e1078007f
:084874000080fa0000000600bc
:020000040000fa
:0200000401f009
:04000c00820000006e
:00000001FF
