:020000040000fa
:080000000002040000000000f2
:020000040000fa
:100008009a0200009a0200009a0200009a02000078
:100018009a0200009a0200009a0200009a02000068
:100028009a0200009a0200009a0200009a02000058
:100038009a0200009a0200009a0200009a02000048
:020000040000fa
:020000040000fa
:10040000ef8020000e7f22000e0188000000000017
:10041000000020000000e000020032000001200087
:10042000200288000c00070060fd20000100200071
:1004300011000700000020000000e0000200320070
:100440000000020000000000280f02000000000071
:100450000040da000000fe004440a900a002200095
:100460000000e0000300320000002000a00188002e
:100470004440a80000000600910188008000780038
:100480000000eb0015003700e280400032a0b4000d
:100490009101ba00e280400032a0b4009102ba009b
:1004a000e280400032a0b4000002eb00472bde00e7
:1004b000f507b200602ce10004003a000059eb009f
:1004c0008301e900fdff3e00040037006128e100e0
:1004d000010032000082eb00040007001101ba00a5
:1004e0000200e000e8ff3a00000006003159ba00bf
:1004f0008301e9000c0032002159ba008301e900b0
:10050000080032000400e00003003a00e2804000ee
:1005100032a0b400f5ff370011d9ba008301e90019
:10052000faff3a008100e800e180400032a0b40008
:10053000000006000040da000000fe00889fbe00b8
:100540008a9fbe0030044200b0844a0030054b0050
:1005500090854b006000b1000898be000a90be0074
:100560000440e10005c8e10006d0e10007d8e10041
:1005700002003100680040001008e8004f05be008e
:100580004f04be0000000600889fbe008a9fbe0088
:100590003004be002005be000418540005985c001d
:1005a00006185d0007985d00110020000440e1007e
:1005b00005c8e10006d0e10007d8e10001003900dc
:1005c0008000eb00108810004f05be004f04be00f5
:1005d000000006001200fa00889fbe008a9fbe003d
:1005e0008c9fbe00e0b79f00f1b79f0082bf9f00c5
:1005f00093bf9f000605be000404be000000eb0090
:10060000d0b79f00c0b79f00b0b79f00a0b79f00b2
:1006100090b79f000006eb005fb19700cfb0970046
:10062000820141003fb097000200e00004003d005d
:10063000370007007e805700c0ff07000300370027
:10064000330007007e805700cfff0700dfb697001a
:100650000d00e0000c0035006fb29700ffb297006c
:100660000fbb97009fbb97001000200001002000e7
:100670006011b800000272008182720002037300f0
:10068000838373001b0007000c06e80001042000b0
:10069000810f5600e0ff3a000d00e00004003d002d
:1006a0000802be000a03be007e805700a3ff0700b9
:1006b0005fa897000000e00005003a001fb2970015
:1006c000afb297003fb39700cfb397000900070080
:1006d0006fb09700ffb097000fb997009fb99700d0
:1006e0004f06be004f05be004f04be000080fa005a
:1006f000000006000100070000000600a4b79f00ec
:10070000b5b79f00c6b79f00d7b79f00000006008f
:100710004f09de0082817100b3b79f004f01de00f8
:100720008180400082807000a1b79f008fb0970049
:100730004f09de00000040000200700090b79f00eb
:100740007fa897004f01de0081804000828070000a
:1007500081b79f000d0007004f3ade000000400007
:1007600004007000f0af9f00080007000402420080
:1007700085824a0006034b0087834b00dfff07009a
:100780000802be000a03be00000006002fb2970058
:10079000bfb297004fb39700dfb397000000060089
:1007a000881f780018002000881f780089ff070044
:1007b0008f87e9004f04780000000600801feb00df
:1007c00084ff07008f87e90000000600889fbe00b5
:1007d0008a9fbe00e00f5000e08f5800e00f5900e4
:1007e000e08f59000c003d006044b8006055b8002f
:1007f0000000540081805c0002015d0083815d0087
:10080000180020001500070008003d001800070030
:100810000004eb00050037000004eb000f000700a8
:1008200002003d001200070018002000dcff070056
:100830000800e000060032006022b8006033b80013
:100840000000520081805a0002015b0083815b003e
:100850004f05be004f04be0000000600e00f52002e
:10086000e08f5a00e00f5b00e08f5b0000000600a5
:100870006044b8006055b8000402540085825c00f2
:1008800006035d0087835d0000000600889fbe00b0
:100890008a9fbe008c1f7800e00f5000e08f580048
:1008a000e00f5900e08f59000d003d006044b80092
:1008b0006055b8000000540081805c0002015d00ba
:1008c00083815d001c0020000820e10009a8e100f0
:1008d0000ab0e1000bb8e1000d003d000800370050
:1008e0000006eb00e00f5200e08f5a00e00f5b00c3
:1008f000e08f5b0006003d006044b8006055b80022
:100900000402540085825c0006035d0087835d005d
:10091000aaff07000c00e000060032006022b800c9
:100920006033b8000000520081805a0002015b0071
:1009300083815b004f0678004f05be004f04be0068
:1009400000000600889fbe008a9fbe008c1f7800b2
:100950000006eb00e00f5000e08f5800e00f590058
:10096000e08f590007003d006044b8006055b800b2
:100970000000540081805c0002015d0083815d0005
:100980001c002000e00f5200e08f5a00e00f5b00d7
:10099000e08f5b0007003d006044b8006055b80080
:1009a0000402540085825c0006035d0087835d00bd
:1009b0000c00a2000c0007000c00e0000600320052
:1009c0006022b8006033b8000000520081805a00f5
:1009d00002015b0083815b004f0678004f05be007b
:1009e0004f04be0000000600889fbe008a9fbe0024
:1009f0008c9fbe000404b8000506b80089044600b8
:100a000060854e000606b8000a054600e0854e00e7
:100a10000706b8008b054600040eb800890446009e
:100a20000a854e00e0854d00050eb8000a05460017
:100a30008b854e00060eb8008b0546000416b800e4
:100a40000a0546008b854e000516b8008b0546004a
:100a5000041eb8008b0546000800be000a01be0057
:100a60004f06be004f05be004f04be00000006004a
:100a70008001780002003700b15978000201e900d6
:0c0a80000200e000fcff3a00000006004d
:020000040000fa
:100a8c00314e00006f64000065000000324e000023
:100a9c006f64000065000000334e00006f640000be
:100aac0065000000344e00006f640000650000001b
:100abc000001000002030000040500000a0b000006
:100acc000c0d00000e0f000011120000131400009a
:040adc0015160000eb
:020000040000fa
:100ae0000200fa00004f78000080fa0000000600c3
:100af0000400fa00000f7800214798003247980060
:100b00000080fa00000006000400fa00000f7800e0
:100b100021479800324798000080fa000000060044
:100b20000000fa000080fa00000006000800fa0049
:100b3000204798002107980062479800cc62a900de
:100b40002e4090000080fb007f006000ac04070096
:100b5000004f780008003700f00f2000a8040700bd
:100b6000804078002e009000014878002e00900010
:100b70000000e800200798006e4090000080fb0015
:100b80000000ea004f00de0000407800ee409000d8
:100b90008140e900614798000004e000eeff3a0060
:100ba000cc62a8001e4078000080fa000000060019
:100bb0000400fa0020479800cc62a9002e40900063
:100bc0000080fb008e0407000000eb008c0407008f
:100bd000004f7800cc62a8001e4078000080fa0028
:100be000000006000800fa0020479800210798003e
:100bf00062479800cc62a9002e409000ff40600040
:100c000000c2b30000c070000080fb007c0407003d
:100c1000004f7800070037002e0090001040780049
:100c20000080fb00ae0090008100e80021079800e2
:100c3000730407006e4090000080fb000000ea0093
:100c40004f00de0000407800ee4090008140e90057
:100c5000614798000004e000efff3a00cc62a80072
:100c60001e4078000080fa00000006000400fa0030
:100c70002047980031479800cc62a9002e40900090
:100c8000ff40600000c2b30000c070000080fb00a5
:100c90005b040700004f78003e4090000080fb009e
:100ca00057040700cc62a8001e4078000080fa00bc
:100cb000000006000800fa0020079800614798002d
:100cc00072479800ae009000010f780006c8bf0080
:100cd000ee409000814f5000010036000140780046
:100ce0006047980001c8bf000004e00005003a001a
:100cf00061802000914078006e40900000c050005c
:100d0000010037000040eb0020479800cc62a900aa
:100d10007e4090000080fb003904070030479800b7
:100d2000050037001e007800104078000080fb00ae
:100d30001e0fe800320407006e4090000080fb00a8
:100d40000000ea004f00de0000407800ee40900016
:100d50008140e900614798000004e000f1ff3a009b
:100d6000020037000000eb00250407002e40900031
:100d70000080fb000000ea004f00de000040780029
:100d8000ae4090008140e900214798000004e00057
:100d9000f4ff3a00cc62a8003e4090000080fa00c8
:100da000000006000800fa0020079800614798003c
:100db000ae009000010f780006c8bf00ee40900022
:100dc00080cf500003003600618020009140780001
:100dd0006147980001c8bf000004e00005003a0028
:100de00061802000914078006e40900000c050006b
:100df000010037000040eb0020479800cc62a900ba
:100e000010062000fe030700304798000600370058
:100e1000f00f2000fa030700804078001e007800e1
:100e2000014878001e0fe8006e4090000080fb0033
:100e30000000ea004f00de0000407800ee40900025
:100e40008140e900614798000004e000f0ff3a00ab
:100e500002003700f00f2000e90307002e40900049
:100e60000080fb000000ea004f00de000040780038
:100e7000ae4090008140e900214798000004e00066
:100e8000f4ff3a00cc62a8003e4090000080fa00d7
:100e9000000006000000fa0020ceb30007000700a3
:100ea0000080fa00000006000000fa0010ceb30037
:100eb000020007000080fa00000006000400fa00ab
:100ec00020479800cc62a9002e4090000080fb00d3
:100ed000cb030700004f7800cc62a8001e407800ca
:100ee0000080fa00000006000000fa0000c0eb00dd
:100ef000f2ff07000080fa00000006000400fa007c
:100f000020479800f0c7b300004f7800ae40900033
:100f10001e407800814f50000100360001407800eb
:100f20008040780050c0b30050ff07000080fa00f6
:100f3000000006000000fa0050c0b3001cff0700cc
:100f40000080fa00000006000200fa00004f78005e
:100f50001e40780001c2b300814f500001003600ee
:100f600000c2b30006e8b7000080fa0000000600e7
:100f70000000fa0006c8bf000080fa00000006006a
:100f80000200fa000040eb00004f78008080200053
:100f90008040eb00014878002c83a800c842a900db
:100fa000cc42a900cc62a800006a280011002000f1
:100fb000f0030700c1c0b3000040eb002bff0700a7
:100fc000f1c0b300f0c0b3002803070020002000e8
:100fd0009f0207000004e0000200320010c0b300ce
:100fe00000e8b7000000eb0099020700d0010700fd
:100ff0008040eb00d0c1b3001cff07008040eb0035
:10100000c0c1b30019ff070001c7b30070c0b3002f
:1010100016ff0700c0c4b300b8ff07009dff07001c
:10102000a1ff0700780007000040eb00e0fe07008a
:10103000e1cfb30001406000804078000040eb0049
:101040000aff07001e4078000004e000050032009f
:101050001e407800e14f40000200320010002000e6
:10106000010037000000eb00004078000080fa002b
:10107000000006000000fa00630007000040eb00db
:10108000cbfe07000004a000804078000040eb0089
:10109000f6fe070001c7b30070c0b300f3fe0700ff
:1010a000cc42a80080802000104078000004e000be
:1010b0000600320007c8bf00004178008180200090
:1010c000a0c0b300c7fe0700020037000040eb00dd
:1010d00084010700d0c1b300b5fe07000080fb000b
:1010e000620060000000e000010032006eff0700b7
:1010f0000080fa00000006000000fa00cc42a900bf
:1011000010408000214080006011b80004d022000f
:10111000151320006033b8000afe0700843e20004b
:10112000050020006033b8009dfd07000000be00f0
:1011300090030700d0c1b3009dfe07000080fb00b4
:10114000620060000000e0000e00320010408000ed
:10115000214080006011b80004d022001513200047
:101160006033b800f7fd0700843e20000500200032
:101170006033b8008afd07000000be007d03070051
:1011800049ff07000040eb0089fe0700e1cfb300f4
:1011900001406000804078000040eb00b3fe070093
:1011a00020c0b30082fe070080407800e055280090
:1011b000104078000080fb00120020000010dd00cd
:1011c0000040780000c070008040780020c0b3006c
:1011d000a6fe07000080fa00000006000000fa00ea
:1011e000cc42a9000040eb0071fe0700d1cfb30054
:1011f00001406000804078000040eb009bfe07004b
:101200000080fa00000006000200fa000040eb0037
:1012100067fe0700004f78001e80fb006200600040
:101220000000e00009003a000040eb0060fe07000b
:101230000014a000804078000040eb008bfe070007
:10124000006a2800110020004a0307000080fa000d
:10125000000006000600fa001007980041479800b9
:101260005247980013c0b3005e419000ce409000fa
:101270001e0090001f000700000000001aff07007a
:101280008080fb0000032000008060000000e00080
:10129000faff3200cc42a90001c7b30070c0b3000e
:1012a00072fe0700004f78001e80fb007000600097
:1012b0000000e00003003200fbfe07000040eb00ee
:1012c0000100370010c0b3000080fa0000000600e3
:1012d0000400fa00000f7800214798000041eb005d
:1012e000ae4090001e007800daff07000080fa0090
:1012f000000006000600fa00000f78002147980061
:1013000032479800434798003e4090000004e000b8
:101310000200320000cbb3000100370000cab30066
:1013200000417800ae4090001e00780061fe07008a
:101330004e4090000004e00001003200cc42a800c2
:101340000080fa00000006000000fa0070c1b3003f
:1013500017fe0700624060000080fa0000000600ef
:101360000000fa000c003700dffe07000080fb00e1
:10137000700060000000e0000700320001c1b3000f
:1013800070c0b30039fe0700cc42a900c6fe0700ba
:101390000040eb000800370070c1b30004fe0700f6
:1013a0000080fb00700060000000e000eeff3200f3
:1013b000cc42a90010c0b3000080fa000000060073
:1013c0000400fa00004f7800114798002247980067
:1013d0000040eb00f6fd0700804078001e409000c2
:1013e0000080fb004400dd000040780080c07000f9
:1013f0001e80fb004500dd000040780080c07000ca
:101400002e4090000080fb004600dd000040780088
:1014100000c07000804078000040eb0013fe070021
:101420000080fa00000006000200fa000040eb0015
:10143000004f7800cc62a90000062000700207006f
:10144000f00f20006e020700004f7800cc62a80069
:1014500000c2b3009e40780080cf500006003600e6
:101460008cfe070000c4290001002000c102070013
:101470000040eb00010037001e4078000080fa00b9
:10148000000006000000fa000000eb000200070068
:101490000080fa00000006000400fa00100798001f
:1014a00070c1b300c2fd07000080fb006100600056
:1014b0000000e0000d003a001e0090000000e00077
:1014c0000800320088fe0700004f78001e80fb00f5
:1014d0000000d10000407800e74060001e0090004e
:1014e0000148780010c0b300010037000040eb0055
:1014f0000080fa00000006000400fa00000f7800e7
:1015000021479800ae4090001e00780025fe07009d
:1015100001c7b30070c0b300d4fd07000080fa001b
:10152000000006000800fa00100798002107980044
:101530003207980001c7b30070c0b300cbfd0700ad
:10154000004f780002c2b3009e4061001e00900070
:10155000014878001e417800f04061002e009000a4
:101560000148780002c4b3009e4061003e00900034
:10157000014878000080fa00000006000200fa002e
:10158000000f780007c8bf00004178009e00780077
:10159000a0c0b30093fd070007c8bf00004178005a
:1015a0009e00780000c1b3008efd070006c8bf0092
:1015b0008040780010c1b300acfd07000080fa0045
:1015c000000006000200fa00004f78001ecfe9007c
:1015d0001e4078000004e000090032009e407800c0
:1015e00063c060008040780030c0b3009ffd0700fa
:1015f0009e40780063c0600000c0e80007e8b700c4
:101600000080fa00000006000400fa00004f780095
:10161000110798001e4078000004e00006003a0020
:1016200007c8bf000080fb00000178009e0090000a
:10163000808020000efd07001e407800e64f50001d
:1016400026003e001e407800e14f500009003e0099
:1016500071802000914078001e80fb0042562800d7
:1016600062407800014178009e0090005dfd070017
:10167000060037001e80fb004156280061407800bc
:1016800012c0b3009e00900056fd0700618020004c
:10169000914078001e80fb00a2562800624078002e
:1016a00072fd070020c0b30041fd070080407800b4
:1016b0001e80fb00e2552800624078000080fb009d
:1016c000120020000010dd000040780000c0700013
:1016d0008040780020c0b30064fd07000080fa005d
:1016e000000006000200fa00004f780020c0b3009e
:1016f0002ffd0700804078001e80fb00e255280087
:10170000624078000080fb00120020000010dd0025
:101710000040780000c0ea0000c06000804078000f
:1017200020c0b30051fd07000080fa000000060051
:101730000000fa00cc62a90000052000b0010700fb
:1017400030072000ae010700cc62a8000080fa003c
:10175000000006000000fa00d0c1b30014fd07002d
:101760000024a00080407800d0c1b3003ffd0700f6
:10177000c0c1b3000efd0700f1c3b300014070000b
:1017800080407800c0c1b30038fd070010c0b3002e
:1017900001e8b7000080fa00000006000000fa002f
:1017a000d0c1b30002fd07006040b3008040780064
:1017b000d0c1b3002dfd0700c0c1b300fcfc070081
:1017c0003040b30080407800c0c1b30027fd07005f
:1017d00010c0b30001e8b7000080fa000000060066
:1017e0000000fa00d0c1b300f1fc07000004a00023
:1017f00080407800d0c1b3001cfd07000080fa00d3
:10180000000006000a00fa004047980031079800df
:10181000024f9800be009000010f78000e48900023
:1018200001c2b300814f50000100360000c2b30076
:1018300020479800cc62a9004e4090000080fb0039
:10184000e7006000800a2000010070006c010700c2
:10185000050037001e007800104078000080fb0073
:101860001e0fe800660107002e4090000080fb007c
:101870000000ea004f00de0000407800ae4090001b
:101880008140e900214798000004e000f1ff3a00a0
:10189000cc62a8000080fa00000006000000fa00f8
:1018a00070c1b300c2fc07000080fb006100600053
:1018b00000f0a7000000ea000000e9004f00de0091
:1018c000004078000080fa00000006000000fa00e6
:1018d00000c8bf000080fa00000006000200fa0005
:1018e000004f78001e4078000004e0000400320041
:1018f000f1c3b30010c0b300dcfc070003003700e5
:101900008040eb0010c0b300d8fc07000080fa0054
:10191000000006000400fa002047980031479800b4
:101920002e409000e64f50001b003e0010c0b30058
:101930009ffc0700004f78003e4090000004e0004c
:10194000090032002e4090000080fb0011002000b2
:101950000008dd00804078001e40780000c0700064
:10196000004f7800090037002e4090000080fb00f7
:10197000110020000008dd000040780080c0ea006f
:101980001e40780000c06000004f78009e40780044
:1019900010c0b300b5fc07000080fa00000006008c
:1019a0000000fa0090c0b30081fc070061406000b5
:1019b0000080fa00000006000000fa0090c0b300aa
:1019c0007bfc0700614060000080fa000000060018
:1019d0000400fa002047980060c0b30074fc0700c0
:1019e00081cfb300014f60002e409000e34f5000c4
:1019f0000300360070c0b300204798000400370091
:101a00002e409000004040000040e8002047980031
:101a10002e4090001e4f70009e40780060c0b300c2
:101a200092fc07000080fa00000006000000fa00a7
:101a300060c0b3005efc07000080fb006600600031
:101a40000080d100004078000080fa00000006000d
:101a50000400fa00100798000040eb00004f7800e7
:101a600060c0b30052fc0700104798009e409000f1
:101a700070cdb30000c0600010479800a00f200098
:101a80000100200010408800214088001e009000c6
:101a9000e20f500009003a009e40900000c2b300df
:101aa00000c0700010479800201c2000010020009a
:101ab00010408800214088000a0037001e00900076
:101ac000e10f500007003a001e4090000034a000d3
:101ad00010479800e00b2000010020001040880013
:101ae000214088009e40900060c0b3005ffc07006a
:101af00060c0b3002efc07009e409000814f500054
:101b000002003a0010c0b300004f78001e40780079
:101b10000080fa00000006000400fa0060c0b30074
:101b200023fc07008042b20020479800ae4090009e
:101b300000c2b30080cf500003003a002000200014
:101b4000000f7800080037002e409000e84f50004a
:101b500003003a0010002000000f78000200370058
:101b60000000eb00000f78001e0078000080fa00f3
:101b7000000006000400fa00100798000040eb0087
:101b80000bfc070031cfb300014f60001e00900036
:101b90000000e000070032001e009000e10f50003e
:101ba00002003a001e34a000020037001e34a000dc
:101bb0001e24a0009e4078000040eb002bfc070094
:101bc0000080fa00000006000400fa000000eb00ac
:101bd000000f78000040eb00f5fb07006c40600050
:101be0002047980010c0b300f1fb07003047980071
:101bf0002e4090000080fb00680060000000e000c4
:101c000003003a003e4090000004e0000a00320069
:101c10002e4090000080fb00640060000000e000a7
:101c20000300320020002000000f7800020037007f
:101c300010002000000f78001e0078000080fa00dd
:101c4000000006000200fa000040eb00d8fb07008d
:101c500071cfb300014f60009e4078000040eb0060
:101c600002fc07000080fa00000006000200fa00f3
:101c7000004f7800114798001e80fb004400dd00f3
:101c8000804078001e4090006f40600000c07000ef
:101c90008040780040c0b300f4fb07000080fa00e9
:101ca000000006000000fa0021e3a9002c23a9008f
:101cb000c022a8002043a900001980000050a00005
:101cc0000060a0000070a000001988002143a80057
:101cd0001019800000d0a10000e0a10000f0a000d9
:101ce0001019880025e3a8002119800000f02100c8
:101cf000010070002019880028e3a9004119800024
:101d000000fe2f00008060000000a0004019880045
:101d100021e3a8000080fa00000006000200fa009b
:101d2000003a80004500de0061406000004f78000e
:101d300040a7a8002023a800000000000000000029
:101d400000198000610060000000e000fcff32002c
:101d50009e40780061c060000080fb006100600070
:101d60004500dd00023a8000f1fd2f008100610096
:101d700001007000003a8800001880000080fa001e
:101d8000000006000000fa00d03320001012880086
:101d900061368000f00f2e0080806000007020000f
:101da0000100700060368800c9a2a9002d63a80058
:101db0006136800000fe2f00008060000030a0002f
:101dc00060368800c982a9002d83a80041358000b3
:101dd00000fe2f0000806000e000b3004035880066
:101de000c9c2a8002d43a8002ca3a800c862a9005e
:101df000cc62a80041e2a8000080fa0000000600c2
:101e00000200fa00000f7800011280000004200098
:101e1000008060000000e0000100320040c2a90024
:101e20008540a9009e007800411288000000000053
:101e30002104800000402000008060000000e000dd
:101e4000fbff3200401280000080fa000000060014
:101e50002200fa00e500470062542800170009003c
:101e6000b25878006000b800008fbe000040eb0060
:101e700040479800210007002b00070040479800ca
:101e80003ffc0700f1c0b300f0c0b30077ff0700cc
:101e9000650147004e4090000080fb006600b900dd
:101ea0000000780000004100b4fd070010c0b3003e
:101eb0008afe07001afb070000382c00911c200046
:101ec0002c00070095ff07008000eb00700f9800c2
:101ed0000117980088fc07007e00470041c0b3004e
:101ee000fbfc070063fc0700120020000300200039
:101ef0001e0f41005e974900efff37000000fa0017
:101f00000400070067ff07009eff07000080fa003b
:101f1000000006000000fa00c042a800c062a8004d
:101f20000080fa00000006000200fa000040eb000a
:101f3000004f7800101680004300de006140600012
:101f40000080fb0000004000804078001e407800c8
:101f500000c07000004f7800101680004200de00c4
:101f6000614060001e4f70001e4078000080fa0043
:041f70000000060067
:020000040000fa
:101f7400f03fb1000180b10006003500ee03090016
:101f840000000000403fb1000180b100fbff3d00b4
:101f94001000b000203fb0000200350000800900ae
:081fa40000000000000006002f
:020000040000fa
:101fac000808000006000000000000000608000001
:101fbc0002000000020000002005000000080000e4
:0c1fcc0006000000000000000000000003
:020000040000fa
:0200000401f009
:04000000cf0000002d
:020000040000fa
:0200000401f009
:04000400cf00000029
:020000040000fa
:0200000401f009
:0400080007000000ed
:020000040000fa
:0200000401f009
:04000c0001000000ef
:020000040000fa
:0200000401f009
:0400100043000000a9
:020000040000fa
:0200000401f009
:04001400590000008f
:020000040000fa
:0200000401f009
:04001800f4000000f0
:020000040000fa
:0200000401f009
:04001c00ffff0000e2
:00000001FF
